:100000000C942A000C9447000C9447000C94470071
:100010000C9447000C9447000C9447000C94470044
:100020000C9447000C9447000C9447000C94470034
:100030000C9447000C9447000C9447000C94470024
:100040000C9447000C9447000C9447000C94470014
:100050000C94470011241FBECFE5D4E0DEBFCDBF16
:1000600010E0A0E6B0E0E0E6F2E002C005900D92FC
:10007000A837B107D9F720E0A8E7B0E001C01D928A
:10008000AB37B207E1F70E9478000C942E010C9474
:1000900000008BBB672B11F4C09801C0C09AC19AB5
:1000A0008FE99FE00197F1F700C00000C1988FE948
:1000B0009FE00197F1F700C00000089560E070E054
:1000C0008CE30E94490060E070E08CE00E944900EF
:1000D00060E070E086E00E94490060E070E081E04E
:1000E0000E94490060E070E082E00E9449000895AB
:1000F0008FEF8ABB83E087BB0E945E0060E070E008
:1001000080E40E94490010927A001092790080E009
:1001100090E0FC01E159FF4F61E070E080810E94B6
:1001200049008091790090917A00019690937A002D
:10013000809379008830910564F360E070E088E492
:100140000E94490010927A001092790080E090E0BD
:10015000FC01E959FF4F61E070E080810E94490095
:100160008091790090917A00019690937A00809323
:1001700079008830910564F360E070E085EC0E94BE
:10018000490010927A001092790080E090E0FC0122
:10019000E05AFF4F61E070E080810E944900809149
:1001A000790090917A00019690937A00809379007B
:1001B0008730910564F310927A001092790084ECF4
:1001C0008093780060E070E0809178000E944900A0
:1001D00061E070E081E00E9449002FE789EA93E046
:1001E000215080409040E1F700C0000060E070E0E6
:1001F000809178000E94490061E070E080E00E94F8
:1002000049002FEF82E597E0215080409040E1F7D0
:1002100000C0000060E070E0809178000E9449001A
:1002200061E070E080E20E94490080917900909145
:100230007A00019690937A0080937900209178005B
:100240002F5F2093780007970CF4BCCF61E070E03B
:1002500081E00E94490080E090E00895F894FFCF8B
:100260005041434D414E000E1F1B1F1C1F1F0E0F00
:080270001E1C18181C1E0F00D3
:00000001FF
